:100000000C942A000C9447000C9447000C94470071
:100010000C9447000C9447000C9447000C94470044
:100020000C9447000C9447000C9447000C94470034
:100030000C9447000C9447000C9447000C94470024
:100040000C9447000C9447000C9447000C94470014
:100050000C94470011241FBECFE5D4E0DEBFCDBF16
:1000600010E0A0E6B0E0E8EFF2E102C005900D92EA
:10007000A43AB107D9F720E0A4EAB0E001C01D928C
:10008000AD3CB207E1F70E94FA020C947A090C9495
:1000900000008F92AF92CF92EF920F9361E080E0D9
:1000A0000E94E80261E081E00E94E80261E082E0F3
:1000B0000E94E80263E086E00E94AC0163E087E012
:1000C0000E94AC0182E08F9397E09F938F9396E01C
:1000D0009F938F9395E09F938F9394E09F938F933B
:1000E00093E09F938F938F936894882481F8AA2438
:1000F000A3946894CC24C1F8E12C03E021E043E010
:1001000060E088EA90E00E944E0280E00E94FF02D8
:100110008DB79EB70C960FB6F8949EBF0FBE8DBFDD
:100120000F91EF90CF90AF908F900895CF92DF9284
:10013000EF92FF9260E084EA90E00E9410032AE0D0
:1001400037ED43E25CE36091A4007091A5008091DB
:10015000A6009091A7000E94C90420E030E046E488
:1001600052E40E9457046B017C016093A4007093D9
:10017000A5008093A6009093A70020E030E0A9019D
:100180000E94C404882384F420E030E040E85FE368
:10019000C701B6010E9457046093A4007093A500A4
:1001A0008093A6009093A7006091A4007091A50091
:1001B0008091A6009091A7000E943B057F936F93CA
:1001C00084E690E09F938F938CEB90E09F938F93C6
:1001D0000E949006C090A400D090A500E090A600D8
:1001E000F090A70020916000309161004091620082
:1001F000509163000F900F900F900F900F900F9001
:10020000C701B6010E94C404882309F4A0C0C70135
:10021000B6010E943B05653171056CF561E080E037
:100220000E94EE0261E081E00E94F40261E082E05F
:100230000E94F40263E086E00E94B20163E087E07E
:100240000E94B80140E061E088EA90E00E94BE01AF
:100250006CEB70E088EA90E00E94D40240E060EC31
:1002600088EA90E00E94BE0166E770E088EA90E0CC
:100270000E94D4025CC06E3171056CF161E080E0D7
:100280000E94F40261E081E00E94EE0261E082E0FF
:100290000E94F40263E086E00E94B80163E087E018
:1002A0000E94B20140E061E088EA90E00E94BE0155
:1002B0006CEB70E088EA90E00E94D40240E060ECD1
:1002C00088EA90E00E94BE0165E870E088EA90E06C
:1002D0000E94D4022CC061E080E00E94F40261E040
:1002E00081E00E94F40261E082E00E94EE0263E09D
:1002F00086E00E94B80163E087E00E94B80140E018
:1003000061E088EA90E00E94BE016CEB70E088EA50
:1003100090E00E94D40240E060EC88EA90E00E9405
:10032000BE0164E970E088EA90E00E94D402809106
:10033000A4009091A500A091A600B091A700809381
:10034000600090936100A0936200B0936300FF90FF
:10035000EF90DF90CF90089541E00E943B03811120
:1003600081E0089541E00E94B503811182E0089583
:1003700040E00E94B503811183E008950F931F931D
:10038000CF93DF93EC01162F042F40E06B818A811D
:100390000E94B503011106C040E0698188810E9476
:1003A000B50307C0013029F441E0698188810E94CA
:1003B000B503412F41706D818C810E94B503412F9F
:1003C000427050E0559547956F818E810E94B5032C
:1003D000412F447050E0559547955595479569854F
:1003E00088850E94B503412F487050E05595479588
:1003F00055954795559547956B858A850E94B50318
:10040000412F407150E05595479555954795559525
:100410004795559547956D858C850E94B503412F6D
:10042000407250E055954795559547955595479598
:1004300055954795559547956F858E850E94B503CF
:10044000412F407450E0042E452F000C441F550BE3
:10045000000C441F551F698988890E94B503412FEC
:10046000441F4427441F6B898A890E94B50341E0D9
:100470006B818A810E94B50381E090E00E943B0479
:1004800040E06B818A810E94B50381E090E00E9488
:100490003B04DF91CF911F910F9108956F927F924E
:1004A0008F92AF92CF92EF920F93CF93DF93CDB70E
:1004B000DEB73C018E2DF301E482A6829C859087F5
:1004C0009E859287988994879A8996879C89908B34
:1004D0009E89928B60832283C58287829D859187C6
:1004E0009F859387998995879B8997879D89918B0C
:1004F0009F89938B4183038341E06C2D0E943B03D2
:1005000041E0F301678186810E943B0341E0F301F2
:10051000618580850E943B0341E0F301638582850C
:100520000E943B0341E0F301658584850E943B0303
:1005300041E0F301678586850E943B0341E0F301BA
:10054000618980890E943B0341E0F30163898289CC
:100550000E943B0341E0F301618180810E943B03E3
:1005600041E0F301638182810E943B0340E066E049
:10057000C3010E94BE0140E06CE0C3010E94BE01C5
:1005800040E068E3C3010E94BE0140E061E0C301B6
:100590000E94BE01DF91CF910F91EF90CF90AF906D
:1005A0008F907F906F9008950F931F93CF93DF9359
:1005B0008C01EB0105C0219641E0C8010E94BE01FB
:1005C00068816111F8CFDF91CF911F910F9108954C
:1005D00041E00E943B03811181E0089541E00E94C7
:1005E000B503811182E0089540E00E94B5038111B6
:1005F00083E008950E9449000E949600FDCF40E0EC
:1006000060E00E943B0387B1806487B987B18F7D2A
:1006100087B986B1887F86B986B1806886B9089522
:10062000CF93DF93EC0187B1807E682B67B986B1E9
:10063000806486B9349BFECF84B165B170E0762FBB
:100640006627680F711DCB01880F991F880F991FAE
:10065000680F791F80E090E00E94710520E030E093
:1006600040E85AE30E942306688379838A839B8348
:10067000DF91CF910895883008F06FC0643008F0A2
:100680006EC0423008F06DC06130F9F030F0623079
:10069000A1F1633009F449C066C05AB361E070E06B
:1006A000082E02C0660F771F0A94E2F7242F30E06D
:1006B000F90102C0EE0FFF1F8A95E2F7CF016095A6
:1006C0006523862B8ABB80E0089557B361E070E014
:1006D000082E02C0660F771F0A94E2F7242F30E03D
:1006E000F90102C0EE0FFF1F8A95E2F7CF01609576
:1006F0006523862B87BB80E0089554B361E070E0EA
:10070000082E02C0660F771F0A94E2F7242F30E00C
:10071000F90102C0EE0FFF1F8A95E2F7CF01609545
:100720006523862B84BB80E0089551B361E070E0BF
:10073000082E02C0660F771F0A94E2F7242F30E0DC
:10074000F90102C0EE0FFF1F8A95E2F7CF01609515
:100750006523862B81BB80E0089581E0089582E0C7
:10076000089583E0089580E00895883008F06FC010
:10077000643008F06EC0423008F06DC06130F9F0AE
:1007800030F06230A1F1633009F449C066C05BB358
:1007900061E070E0082E02C0660F771F0A94E2F74E
:1007A000242F30E0F90102C0EE0FFF1F8A95E2F717
:1007B000CF0160956523862B8BBB80E0089558B3ED
:1007C00061E070E0082E02C0660F771F0A94E2F71E
:1007D000242F30E0F90102C0EE0FFF1F8A95E2F7E7
:1007E000CF0160956523862B88BB80E0089555B3C3
:1007F00061E070E0082E02C0660F771F0A94E2F7EE
:10080000242F30E0F90102C0EE0FFF1F8A95E2F7B6
:10081000CF0160956523862B85BB80E0089552B398
:1008200061E070E0082E02C0660F771F0A94E2F7BD
:10083000242F30E0F90102C0EE0FFF1F8A95E2F786
:10084000CF0160956523862B82BB80E0089581E00F
:10085000089582E0089584E0089580E0089583B7C4
:10086000816083BF089583B78E7F83BF089588B763
:10087000816088BF08950F931F93CF93DF938C01FE
:10088000C0E0D0E00CC08FEF82BF0E942F0408B6FA
:1008900000FEFDCF0E9437040E9433042196C0174A
:1008A000D10788F3DF91CF911F910F910895505890
:1008B000BB27AA270E946F040C94E9050E94DB0560
:1008C00038F00E94E20520F039F49F3F19F426F435
:1008D0000C94D8050EF4E095E7FB0C94D205E92FB3
:1008E0000E94FA0558F3BA17620773078407950741
:1008F00020F079F4A6F50C941C060EF4E0950B2E6E
:10090000BA2FA02D0B01B90190010C01CA01A00161
:100910001124FF27591B99F0593F50F4503E68F1BC
:100920001A16F040A22F232F342F4427585FF3CFFD
:10093000469537952795A795F0405395C9F77EF4CE
:100940001F16BA0B620B730B840BBAF09150A1F017
:10095000FF0FBB1F661F771F881FC2F70EC0BA0F9D
:10096000621F731F841F48F4879577956795B79525
:10097000F7959E3F08F0B0CF9395880F08F0992720
:10098000EE0F9795879508950E94AE0508F481E0D3
:1009900008950E94DD040C94E9050E94E20558F0D8
:1009A0000E94DB0540F029F45F3F29F00C94D2054A
:1009B00051110C941D060C94D8050E94FA0568F399
:1009C0009923B1F3552391F3951B550BBB27AA2708
:1009D00062177307840738F09F5F5F4F220F331F42
:1009E000441FAA1FA9F335D00E2E3AF0E0E832D00A
:1009F00091505040E695001CCAF72BD0FE2F29D00D
:100A0000660F771F881FBB1F261737074807AB07DE
:100A1000B0E809F0BB0B802DBF01FF2793585F4F53
:100A20003AF09E3F510578F00C94D2050C941D06C7
:100A30005F3FE4F3983ED4F3869577956795B79535
:100A4000F7959F5FC9F7880F911D9695879597F940
:100A50000895E1E0660F771F881FBB1F62177307B9
:100A60008407BA0720F0621B730B840BBA0BEE1FCE
:100A700088F7E09508950E9442056894B1110C949E
:100A80001D0608950E94020688F09F5798F0B92F1E
:100A90009927B751B0F0E1F0660F771F881F991FB3
:100AA0001AF0BA95C9F714C0B13091F00E941C0633
:100AB000B1E008950C941C06672F782F8827B85F43
:100AC00039F0B93FCCF3869577956795B395D9F70B
:100AD0003EF490958095709561957F4F8F4F9F4F15
:100AE0000895E89409C097FB3EF490958095709521
:100AF00061957F4F8F4F9F4F9923A9F0F92F96E96A
:100B0000BB279395F695879577956795B795F111DE
:100B1000F8CFFAF4BB0F11F460FF1BC06F5F7F4F7B
:100B20008F4F9F4F16C0882311F096E911C077238D
:100B300021F09EE8872F762F05C0662371F096E896
:100B4000862F70E060E02AF09A95660F771F881F65
:100B5000DAF7880F9695879597F90895990F000809
:100B6000550FAA0BE0E8FEEF16161706E807F9077F
:100B7000C0F012161306E407F50798F0621B730B1A
:100B8000840B950B39F40A2661F0232B242B252B9B
:100B900021F408950A2609F4A140A6958FEF811D3E
:100BA000811D089597F99F6780E870E060E00895DF
:100BB0009FEF80EC089500240A9416161706180675
:100BC0000906089500240A94121613061406050651
:100BD0000895092E0394000C11F4882352F0BB0FE2
:100BE00040F4BF2B11F460FF04C06F5F7F4F8F4F45
:100BF0009F4F089557FD9058440F551F59F05F3F80
:100C000071F04795880F97FB991F61F09F3F79F02E
:100C100087950895121613061406551FF2CF4695B0
:100C2000F1DF08C0161617061806991FF1CF869532
:100C30007105610508940895E894BB276627772716
:100C4000CB0197F908950E9436060C94E9050E949D
:100C5000DB0538F00E94E20520F0952311F00C949A
:100C6000D2050C94D80511240C941D060E94FA0597
:100C700070F3959FC1F3950F50E0551F629FF001EF
:100C8000729FBB27F00DB11D639FAA27F00DB11D08
:100C9000AA1F649F6627B00DA11D661F829F222791
:100CA000B00DA11D621F739FB00DA11D621F839F18
:100CB000A00D611D221F749F3327A00D611D231FEE
:100CC000849F600D211D822F762F6A2F11249F573C
:100CD00050409AF0F1F088234AF0EE0FFF1FBB1F3F
:100CE000661F771F881F91505040A9F79E3F5105FE
:100CF00080F00C94D2050C941D065F3FE4F3983EFF
:100D0000D4F3869577956795B795F795E7959F5FA7
:100D1000C1F7FE2B880F911D9695879597F9089539
:100D2000AEE0B0E0E6E9F6E00C9451090D891E89C9
:100D300086E08C831A8309838FEF9FE79E838D83E0
:100D4000AE01475E5F4F6F89788DCE0101960E949C
:100D5000B206EF81F885E00FF11F10822E96E4E0D5
:100D60000C946D09ABE0B0E0E8EBF6E00C944309BD
:100D70006C017B018A01FC0117821682838181FF4D
:100D8000CCC1CE0101963C01F6019381F70193FDA0
:100D9000859193FF81917F01882309F4BAC185323F
:100DA00039F493FD859193FF81917F01853229F478
:100DB000B60190E00E94A908E7CF912C212C312C9C
:100DC000FFE1F315D8F08B3279F038F4803279F006
:100DD0008332A1F4232D20611DC08D3261F0803358
:100DE00069F4232D216016C0832D8260382EE32DF7
:100DF000E4603E2E2AC0F32DF8601DC037FC2DC0E4
:100E000020ED280F2A3040F08E32B9F436FC81C133
:100E1000232D2064322E19C036FE06C08AE0989E2B
:100E2000200D1124922E11C0EAE02E9E200D1124D7
:100E3000222EF32DF0623F2E08C08C3621F4832D34
:100E40008068382E02C0883641F4F70193FD859101
:100E500093FF81917F018111B3CF982F9F7D95548E
:100E6000933028F40C5F1F4F9FE399830DC08336A6
:100E700031F0833771F0833509F059C021C0F80192
:100E8000808189830E5F1F4F88248394912C5301A6
:100E900013C02801F2E04F0E511CF801A080B18070
:100EA00036FE03C0692D70E002C06FEF7FEFC50111
:100EB0000E949E084C018201F32DFF773F2E16C041
:100EC000280122E0420E511CF801A080B18036FEBC
:100ED00003C0692D70E002C06FEF7FEFC5010E9473
:100EE00093084C01F32DF0683F2E820133FC1BC0A8
:100EF000822D90E088169906B0F4B60180E290E069
:100F00000E94A9082A94F4CFF50137FC859137FE99
:100F100081915F01B60190E00E94A90821102A94F6
:100F200021E0821A91088114910471F7E8C0843697
:100F300011F0893641F5F80137FE07C060817181F3
:100F4000828193810C5F1F4F08C060817181072EE1
:100F5000000C880B990B0E5F1F4FF32DFF763F2E71
:100F600097FF09C090958095709561957F4F8F4F41
:100F70009F4FF0683F2E2AE030E0A3010E94E50871
:100F8000882E861845C0853731F4232D2F7EB22E4A
:100F90002AE030E025C0932D997FB92E8F36C1F01D
:100FA00018F4883579F0B5C0803719F0883721F00A
:100FB000B0C0E92FE061BE2EB4FE0DC0FB2DF46081
:100FC000BF2E09C034FE0AC0292F2660B22E06C0EB
:100FD00028E030E005C020E130E002C020E132E04E
:100FE000F801B7FE07C060817181828193810C5F37
:100FF0001F4F06C06081718180E090E00E5F1F4F3F
:10100000A3010E94E508882E8618FB2DFF773F2E4E
:1010100036FE0DC0232D2E7FA22E891458F434FEE7
:101020000BC032FC09C0832D8E7EA82E05C0B82CC3
:10103000A32C03C0B82C01C0B92CA4FE0FC0FE0124
:10104000E80DF11D8081803321F49A2D997EA92E1F
:1010500009C0A2FE06C0B394B39404C08A2D86785A
:1010600009F0B394A3FC11C0A0FE06C0B21488F42A
:10107000280C922C9B180EC0B21460F4B60180E2CA
:1010800090E00E94A908B394F7CFB21418F42B187B
:1010900002C0982C212CA4FE10C0B60180E390E081
:1010A0000E94A908A2FE17C0A1FC03C088E790E037
:1010B00002C088E590E0B6010CC08A2D867859F010
:1010C000A1FE02C08BE201C080E2A7FC8DE2B60166
:1010D00090E00E94A908891438F4B60180E390E0FA
:1010E0000E94A9089A94F7CF8A94F301E80DF11DA4
:1010F0008081B60190E00E94A9088110F5CF2220DE
:1011000009F442CEB60180E290E00E94A9082A9438
:10111000F6CFF6018681978102C08FEF9FEF2B9665
:10112000E2E10C945F09FC010590615070400110F0
:10113000D8F7809590958E0F9F1F0895FC01615000
:10114000704001900110D8F7809590958E0F9F1FE9
:1011500008950F931F93CF93DF93FB01238121FD0C
:1011600003C08FEF9FEF2CC022FF16C0468157812E
:10117000248135814217530744F4A081B1819D0138
:101180002F5F3F4F318320838C93268137812F5FE0
:101190003F4F3783268314C08B01EC01FB01008491
:1011A000F185E02D0995892BE1F6D80116968D91F0
:1011B0009C911797019617969C938E931697CE0144
:1011C000DF91CF911F910F910895FA01AA2728303E
:1011D00051F1203181F1E8946F936E7F6E5F7F4F04
:1011E0008F4F9F4FAF4FB1E03ED0B4E03CD0670F80
:1011F000781F891F9A1FA11D680F791F8A1F911DD3
:10120000A11D6A0F711D811D911DA11D20D009F422
:1012100068943F912AE0269F11243019305D319364
:10122000DEF6CF010895462F4770405D4193B3E04D
:101230000FD0C9F7F6CF462F4F70405D4A3318F0F4
:10124000495D31FD4052419302D0A9F7EACFB4E0A5
:10125000A6959795879577956795BA95C9F700975D
:101260006105710508959B01AC010A2E06945795FE
:10127000479537952795BA95C9F7620F731F841F55
:10128000951FA01D08952F923F924F925F926F92EB
:101290007F928F929F92AF92BF92CF92DF92EF9206
:1012A000FF920F931F93CF93DF93CDB7DEB7CA1B87
:1012B000DB0B0FB6F894DEBF0FBECDBF09942A88B2
:1012C000398848885F846E847D848C849B84AA845A
:1012D000B984C884DF80EE80FD800C811B81AA81E7
:1012E000B981CE0FD11D0FB6F894DEBF0FBECDBFB2
:0812F000ED010895F894FFCF11
:1012F800000080BF74656D70657261747572653ABF
:10130800202564430A002020204865617465722006
:101318004D6F646500202020436F6F6C6572204D0F
:101328006F646500202044656661756C74204D6F9C
:0413380064650000E8
:00000001FF
